:100000000C945D000C9485000C9485000C94850084
:100010000C9485000C9485000C9485000C9485004C
:100020000C9485000C9485000C9485000C9485003C
:100030000C9485000C9485000C9485000C9485002C
:100040000C944D020C9485000C94BD020C94970204
:100050000C9485000C9485000C9485000C9485000C
:100060000C9485000C9485000000000024002700FB
:100070002A0000000000250028002B0004040404CE
:100080000404040402020202020203030303030342
:10009000010204081020408001020408102001021F
:1000A00004081020000000080002010000030407FB
:1000B0000000000000000000880311241FBECFEFE5
:1000C000D8E0DEBFCDBF11E0A0E0B1E0E4E8F7E0AA
:1000D00002C005900D92A231B107D9F721E0A2E14B
:1000E000B1E001C01D92A83BB207E1F710E0CDE5F9
:1000F000D0E004C02197FE010E94B503CC35D107A2
:10010000C9F70E94EF020C94C0030C940000CF9238
:10011000DF92EF92FF920F931F93CF93DF936C01C7
:100120007A018B01C0E0D0E0CE15DF0589F0D8015F
:100130006D918D01D601ED91FC910190F081E02D42
:10014000C6010995892B11F47E0102C02196ECCFDE
:10015000C701DF91CF911F910F91FF90EF90DF903A
:10016000CF900895089580E090E00895FC01538DAC
:10017000448D252F30E0842F90E0821B930B541781
:1001800010F0CF96089501970895FC01918D828D0E
:10019000981761F0828DDF01A80FB11D5D968C91DB
:1001A000928D9F5F9F73928F90E008958FEF9FEFE6
:1001B0000895FC01918D828D981731F0828DE80FA2
:1001C000F11D858D90E008958FEF9FEF0895FC015C
:1001D000918D228D892F90E0805C9F4F821B910929
:1001E0008F739927089582E191E00E94E70021E052
:1001F000892B09F420E0822F0895FC01848DDF0112
:10020000A80FB11DA35ABF4F2C91848D90E0019689
:100210008F739927848FA689B7892C93A089B18978
:100220008C9180648C93938D848D981306C0028882
:10023000F389E02D80818F7D80830895EF92FF9276
:100240000F931F93CF93DF93EC0181E0888F9B8DF9
:100250008C8D981305C0E889F989808185FD24C0BB
:10026000F62E0B8D10E00F5F1F4F0F731127E02E3E
:100270008C8DE8120CC00FB607FCFACFE889F9891B
:10028000808185FFF5CFCE010E94FD00F1CF8B8DDF
:10029000FE01E80FF11DE35AFF4FF0820B8FEA8950
:1002A000FB898081806207C0EE89FF896083E889CD
:1002B000F98980818064808381E090E0DF91CF9133
:1002C0001F910F91FF90EF900895CF93DF93EC0172
:1002D000888D8823C9F0EA89FB89808185FD05C066
:1002E000A889B9898C9186FD0FC00FB607FCF5CFA0
:1002F000808185FFF2CFA889B9898C9185FFEDCFE8
:10030000CE010E94FD00E7CFDF91CF91089580E0FC
:1003100090E0892B29F00E94F30081110C940000D9
:10032000089590E0FC01EC55FF4F3491FC01E0573B
:10033000FF4F2491FC01E458FF4FE491EE2309F4B0
:100340003BC0332339F1333091F038F43130A9F028
:10035000323001F584B58F7D12C0373091F03830DE
:10036000A1F03430B9F4809180008F7D03C080917A
:1003700080008F77809380000DC084B58F7784BD17
:1003800009C08091B0008F7703C08091B0008F7D4D
:100390008093B000F0E0EE0FFF1FEE58FF4FA591E5
:1003A000B4918FB7F894EC91611103C020952E237E
:1003B00001C02E2B2C938FBF0895482F50E0FA01D7
:1003C000E057FF4F9491FA01E458FF4F2491222304
:1003D00099F030E0220F331FF901E859FF4FA59142
:1003E000B491F901EE58FF4F259134912FB7F8944D
:1003F000EC91E92BEC932FBF6115710511F460E0CE
:1004000004C06F3F710519F461E00C949101FA0189
:10041000EC55FF4FE491E330F9F048F4E130B9F0E6
:10042000E230A1F584B5806284BD68BD0895E730EF
:10043000E9F0E83019F1E43049F5809180008062FC
:100440008093800070938B0060938A00089584B538
:10045000806884BD67BD0895809180008068809326
:100460008000709389006093880008958091B000A7
:1004700080688093B0006093B30008958091B000CD
:1004800080628093B0006093B40008956038710575
:100490000CF0BACFB4CF0E94BB031F920F920FB6DD
:1004A0000F9211242F933F938F939F93AF93BF93FA
:1004B0008091B4019091B501A091B601B091B701BE
:1004C0003091B30123E0230F2D3720F40196A11DB5
:1004D000B11D05C026E8230F0296A11DB11D209372
:1004E000B3018093B4019093B501A093B601B0938A
:1004F000B7018091AF019091B001A091B101B0918D
:10050000B2010196A11DB11D8093AF019093B0017E
:10051000A093B101B093B201BF91AF919F918F9120
:100520003F912F910F900FBE0F901F9018951F9223
:100530000F920FB60F9211242F933F934F935F9317
:100540006F937F938F939F93AF93BF93EF93FF939B
:1005500082E191E00E94FD00FF91EF91BF91AF9188
:100560009F918F917F916F915F914F913F912F91CB
:100570000F900FBE0F901F9018951F920F920FB6FD
:100580000F9211242F938F939F93EF93FF93E091FA
:100590002201F09123018081E0912801F09129014D
:1005A00082FD12C0908180912B018F5F8F7320910B
:1005B0002C01821751F0E0912B01F0E0EE5EFE4F2E
:1005C000958F80932B0101C08081FF91EF919F91C6
:1005D0008F912F910F900FBE0F901F9018957894C8
:1005E00084B5826084BD84B5816084BD85B5826038
:1005F00085BD85B5816085BD80916E0081608093E9
:100600006E00109281008091810082608093810051
:100610008091810081608093810080918000816061
:10062000809380008091B10084608093B1008091BC
:10063000B00081608093B00080917A0084608093E4
:100640007A0080917A00826080937A0080917A00AB
:10065000816080937A0080917A00806880937A002C
:100660001092C100E0912201F091230182E0808389
:10067000E0911E01F0911F011082E0912001F091A4
:1006800021018FEC808310922A01E0912601F091E4
:10069000270186E08083E0912401F091250180818B
:1006A00080618083E0912401F09125018081886040
:1006B0008083E0912401F09125018081806880830E
:1006C000E0912401F091250180818F7D808382E17A
:1006D00091E00E94E7000397C1F482E191E00E945B
:1006E000C500BC0189E00E94DD0182E191E00E9429
:1006F000C500BC018AE00E94DD0182E191E00E9418
:10070000C500BC018BE00E94DD010E948701DFCFA4
:10071000E2E1F1E01382128288EE93E0A0E0B0E023
:1007200084839583A683B78384E091E0918380835B
:1007300085EC90E09587848784EC90E097878687A6
:1007400080EC90E0918B808B81EC90E0938B828B9E
:1007500082EC90E0958B848B86EC90E0978B868B77
:10076000118E128E138E148E0895EE0FFF1F0590BA
:10077000F491E02D099481E090E0F8940C94C0038A
:04078000F894FFCF1B
:10078400000000001E018700B6006501E700C500F7
:02079400D9008A
:00000001FF
